:020000040000FA
:040000006EEF0CF0A3
:10060000002020202020202020202020202020200A
:100610002020202020202020202020202037626938
:100620007473202038626974730A0049324320646D
:10063000657669636520666F756E642061742061FC
:100640006464726573732020307800556E6B6E6F32
:1006500077206572726F72206174206164647265C4
:100660007373203078004E6F2049324320646576E2
:100670006963657320666F756E640A000A493243C8
:10068000205363616E6E65720A0025303258202057
:1006900020307825303258005363616E6E696E6782
:1006A0002E2E2E0A005465736420646F6E65210A35
:0906B000002020210A00300000A6
:1006BA0045C0D9FF46C0DAFFDECFF6FFDDCFF7FF30
:1006CA000800F550250AD8A46DEF03F06FEF03F088
:1006DA004DEF05F045C0D9FF46C0DAFFDE2A000E0D
:1006EA00DD22000E776E000E766E76C07AF077C045
:1006FA007BF078687968000E566E000E556EEEEF44
:10070A0003F0C2EF03F07A8045C0D9FF46C0DAFF92
:10071A00DE2A000EDD22EEEF03F07A8245C0D9FF11
:10072A0046C0DAFFDE2A000EDD22EEEF03F07A84FD
:10073A0045C0D9FF46C0DAFFDE2A000EDD22EEEF01
:10074A0003F07A8645C0D9FF46C0DAFFDE2A000EDA
:10075A00DD22EEEF03F07A8845C0D9FF46C0DAFF02
:10076A00DE2A000EDD22EEEF03F0000E566E010EB9
:10077A00556EEEEF03F0EEEF03F045C0D9FF46C029
:10078A00DAFFDECFF6FFDDCFF7FF0800F550496E3E
:10079A004A6A4A50000AD8B4D5EF03F0BAEF03F018
:1007AA004950200AD8B4A6EF03F0030AD8B4B0EF30
:1007BA0003F0080AD8B49CEF03F0060AD8B488EF0D
:1007CA0003F01D0AD8B492EF03F0BAEF03F0EEEF8C
:1007DA0003F055505610D8B4F5EF03F0F7EF03F0D5
:1007EA00C2EF03F07AA0FCEF03F0FEEF03F001EF93
:1007FA0004F07A9201EF04F045C0D9FF46C0DAFF4F
:10080A00DECFF6FFDDCFF7FF0800F5502A0AD8A49D
:10081A0011EF04F013EF04F03EEF04F045C0D9FFE6
:10082A0046C0DAFFDE2A000EDD2247C0D9FF48C0E3
:10083A00DAFFDFCF49F0020EDE26DFCF4AF0000EE4
:10084A00DD2249C0D9FF4AC0DAFFDECF76F0DDCF1C
:10085A0077F077BE35EF04F033EF04F09DEF04F044
:10086A007A80766C771ED8B0772A9DEF04F09DEFD8
:10087A0004F045C0D9FF46C0DAFFDECF08F0DDCF6D
:10088A0009F007EC07F008C076F009C077F057EFD7
:10089A0004F045C0D9FF46C0DAFFDE2A000EDD2289
:1008AA0057EF04F0D00E496EFF0E4A6E45C0D9FFCD
:1008BA0046C0DAFFDECFF6FFDDCFF7FF0800F550BE
:1008CA004B6E4C6A49504B264A504C224C500AE116
:1008DA000A0E4B5CD8A074EF04F077EF04F0010E17
:1008EA0078EF04F0000E576E586A90EF04F045C096
:1008FA00D9FF46C0DAFFDECFF6FFDDCFF7FF0800EB
:10090A00F550016E026A04EC0CF001C057F002C007
:10091A0058F090EF04F057505810D8A497EF04F00D
:10092A0099EF04F04EEF04F09DEF04F09DEF04F010
:10093A0045C0D9FF46C0DAFFDECFF6FFDDCFF7FFAD
:10094A000800F550780AD8B4ADEF04F0AFEF04F020
:10095A00C3EF04F045C0D9FF46C0DAFFDECFF6FF89
:10096A00DDCFF7FF0800F550580AD8A4BFEF04F00E
:10097A00C1EF04F013EF05F0C3EF04F045C0D9FF4F
:10098A0046C0DAFFDECFF6FFDDCFF7FF0800F5CF6E
:10099A0059F045C0D9FF46C0DAFFDE2A000EDD2233
:1009AA0047C0D9FF48C0DAFFDFCF49F0020EDE2682
:1009BA00DFCF4AF0000EDD2249C0D9FF4AC0DAFF74
:1009CA00DECF4BF0DDCF4CF04BC04DF04CC04EF0BB
:1009DA004F6A506A516A526A536A546A43C01CF099
:1009EA0044C01DF04DC01EF04EC01FF04FC020F095
:1009FA0050C021F051C022F052C023F053C024F05D
:100A0A0054C025F059C026F06DEC05F01CC043F027
:100A1A001DC044F06CEF05F06CEF05F045C0D9FF3E
:100A2A0046C0DAFFDECFF6FFDDCFF7FF0800F5504C
:100A3A00250AD8A423EF05F025EF05F03EEF05F0CF
:100A4A0045C0D9FF46C0DAFFDE2A000EDD22000EBD
:100A5A00026E250E016E43C003F044C004F054EC4C
:100A6A0009F0000E446E010E436E6CEF05F06CEF58
:100A7A0005F045C0D9FF46C0DAFFDE2A000EDD22A6
:100A8A00000E446E000E436E6CEF05F06CEF05F03D
:100A9A0045C0D9FF46C0DAFFDECFF6FFDDCFF7FF4C
:100AAA000800F550016E026A43C003F044C004F026
:100ABA0054EC09F045C0D9FF46C0DAFFDE2A000E21
:100ACA00DD22000E446E010E436E6CEF05F012003B
:100ADA0079BE72EF05F074EF05F077EF05F07A92C0
:100AEA0077EF05F079BE84EF05F0795006E17804D6
:100AFA00D8B082EF05F084EF05F08AEF05F0000E1A
:100B0A00346E010E336E8EEF05F078C033F079C083
:100B1A0034F076C035F077C036F07AA897EF05F052
:100B2A0099EF05F09FEF05F0FE0E3526FF0E3622EF
:100B3A009FEF05F01EC037F01FC038F020C039F013
:100B4A0021C03AF022C03BF023C03CF024C03DF063
:100B5A0025C03EF0000E406E1F0E3F6EAC0E3F24C5
:100B6A00D96E000E4020DA6E000EDF6E8FEF06F0AF
:100B7A003F06D8A040060F0E3714416E426A42BEA5
:100B8A00D0EF05F0425009E10A0E415CD8A0D0EF3F
:100B9A0005F0D2EF05F0DAEF05F0570E4124416E69
:100BAA00000E4220426EE0EF05F0300E4124416E05
:100BBA00000E4220426EBF0E276EFF0E286E265090
:100BCA00296E2A6A2750292628502A222A500AE101
:100BDA001A0E295CD8A0F4EF05F0F7EF05F0010E24
:100BEA00F8EF05F0000E2F6E306A07EF06F026C008
:100BFA0001F0026AE6EC0BF001C02FF002C030F0FF
:100C0A0007EF06F02F503010D8B40EEF06F010EFB1
:100C1A0006F050EF06F09F0E276EFF0E286E200E8C
:100C2A004110296E000E42102A6E2750292628509C
:100C3A002A222A500AE11A0E295CD8A027EF06F0C8
:100C4A002AEF06F0010E2BEF06F0000E316E326A23
:100C5A003BEF06F041C001F042C002F0A8EC0BF0F5
:100C6A0001C031F002C032F03BEF06F031503210D1
:100C7A00D8B442EF06F044EF06F050EF06F041C058
:100C8A0007F042C008F02CEC0AF007C041F008C097
:100C9A0042F050EF06F0AC0E3F24D96E000E402011
:100CAA00DA6E41C0DFFF3306D8A034063506D8A075
:100CBA00360637C027F038C028F039C029F03AC0C4
:100CCA002AF03BC02BF03CC02CF03DC02DF03EC0BA
:100CDA002EF0050E7AEF06F0D8902E322D322C32F5
:100CEA002B322A32293228322732E82E71EF06F0C7
:100CFA0027C037F028C038F029C039F02AC03AF0A6
:100D0A002BC03BF02CC03CF02DC03DF02EC03EF075
:100D1A008FEF06F040BE9BEF06F0405009E1020E4D
:100D2A003F5CD8A09BEF06F09DEF06F0D1EF06F0EE
:100D3A003750381039103A103B103C103D103E1015
:100D4A00D8A4AAEF06F0ACEF06F0BDEF05F034BE6A
:100D5A00B9EF06F0345006E13304D8B0B7EF06F025
:100D6A00B9EF06F0BDEF05F036BEC4EF06F0365017
:100D7A0008E13504D8A0C4EF06F0C6EF06F0D1EFBB
:100D8A0006F07AB2CBEF06F0CDEF06F0BDEF05F034
:100D9A00D1EF06F0D1EF06F07AA8D6EF06F0D8EF39
:100DAA0006F0F0EF06F03F06D8A04006AC0E3F244E
:100DBA00D96E000E4020DA6E26C0DFFF3F06D8A0AB
:100DCA004006AC0E3F24D96E000E4020DA6E300E7B
:100DDA00DF6EF0EF06F01CC011F01DC012F0AC0E71
:100DEA003F24136E000E4020146E35C015F036C035
:100DFA0016F0C3EC09F011C01CF012C01DF006EF8A
:100E0A0007F01200000E166E000E156E000E0F6E21
:100E1A00000E0E6E15EF07F0084A092A15EF07F0C3
:100E2A00010E146E08C0F6FF09C0F7FF0800F5505E
:100E3A00200AD8B423EF07F025EF07F044EF07F0B4
:100E4A00F70E0A6EFF0E0B6E08C0F6FF09C0F7FF19
:100E5A000800F5500C6E0D6A0A500C260B500D2234
:100E6A000D5009E1050E0C5CD8A03EEF07F040EFEB
:100E7A0007F044EF07F0000E146E44EF07F014C0B9
:100E8A0010F0116A59EF07F008C0F6FF09C0F7FF22
:100E9A000800F550016E026A07EC0BF001C010F071
:100EAA0002C011F059EF07F010501110D8A460EFEA
:100EBA0007F062EF07F011EF07F070EF07F070EF3D
:100ECA0007F0000E0F6E010E0E6E6CEF07F0084A67
:100EDA00092AB4EF07F008C0F6FF09C0F7FF0800B7
:100EEA00F5500A6E0B6A0B50000AD8B47FEF07F070
:100EFA00B4EF07F00A502B0AD8B46CEF07F0060AD1
:100F0A00D8B466EF07F0B4EF07F0B4EF07F0D00EED
:100F1A000A6EFF0E0B6E08C0F6FF09C0F7FF080045
:100F2A00F5500C6E0D6A0A500C260B500D220C1E41
:100F3A000D1E0C4A0D2A15C001F016C002F0000E53
:100F4A00046E0A0E036E59EC0CF00C500124156E57
:100F5A000D500220166E084A092AB4EF07F0D00E87
:100F6A000A6EFF0E0B6E08C0F6FF09C0F7FF0800F5
:100F7A00F5500C6E0D6A0A500C260B500D220D50BE
:100F8A000AE10A0E0C5CD8A0CDEF07F0D0EF07F00B
:100F9A00010ED1EF07F0000E126E136AE5EF07F0AB
:100FAA0008C0F6FF09C0F7FF0800F550016E026A93
:100FBA0004EC0CF001C012F002C013F0E5EF07F0E8
:100FCA0012501310D8A4ECEF07F0EEEF07F08CEFF5
:100FDA0007F0F0EF07F00E500F10D8A4F7EF07F064
:100FEA00F9EF07F007EF08F015C00AF016C00BF08A
:100FFA000A1E0B1E0A4A0B2A0AC008F00BC009F087
:10100A000DEF08F015C008F016C009F00DEF08F052
:10101A00120083EC0BF07C0E026E060E036E6BEC74
:10102A000AF0980E026E060E036E6BEC0AF0000EC2
:10103A000001A96F000EA86F010E026E060E036E64
:10104A006BEC0AF0010E0001AB6F7E0EAB6530EF60
:10105A0008F032EF08F036EF08F0C1EF08F0C1EF00
:10106A0008F0AB51E2EC08F00001AA6FAA51D8A42B
:10107A0041EF08F043EF08F07EEF08F02B0E026E06
:10108A00060E036E6BEC0AF0100E0001AB6150EF16
:10109A0008F052EF08F05AEF08F0B60E026E060E8C
:1010AA00036E6BEC0AF05AEF08F0800E626E000EC7
:1010BA00636E8A0E646E060E656EABC066F0676A72
:1010CA00D8900001AB35686E696A6936DAEC0AF0C5
:1010DA00800E026E000E036E6BEC0AF0B10E026E09
:1010EA00060E036E6BEC0AF00001A84BA92BB5EFB4
:1010FA0008F0020EAA19D8A485EF08F087EF08F0C5
:10110A00B5EF08F04B0E026E060E036E6BEC0AF09A
:10111A00100E0001AB6194EF08F096EF08F09EEF15
:10112A0008F0B60E026E060E036E6BEC0AF09EEF26
:10113A0008F0800E626E000E636E930E646E060EE9
:10114A00656EABC066F0676ADAEC0AF0800E026E72
:10115A00000E036E6BEC0AF0B5EF08F0B5EF08F07D
:10116A000001AB2B7E0EAB65BDEF08F0BFEF08F0B8
:10117A0036EF08F0C1EF08F0A851A911D8A4C8EFBA
:10118A0008F0CAEF08F0D2EF08F0660E026E060EFB
:10119A00036E6BEC0AF0DAEF08F0A50E026E060E8B
:1011AA00036E6BEC0AF0DAEF08F0130E026E880E8B
:1011BA00016E22EC0CF000EF00F0036E9488948626
:1011CA00030E026E980EE82EFED7022EFCD79498D4
:1011DA003FEC0CF094963FEC0CF03FEC0CF0035013
:1011EA000324046E800E066E15EF09F004500614EF
:1011FA000009D8B403EF09F005EF09F008EF09F088
:10120A0094880BEF09F094980BEF09F083EC0CF03B
:10121A00948683EC0CF0D8900632949615EF09F078
:10122A000650D8A41BEF09F01DEF09F0FBEF08F0F8
:10123A001FEF09F0000E066E83EC0CF0948883EC25
:10124A000CF0948683EC0CF082A82EEF09F030EFB4
:10125A0009F034EF09F0010E066E34EF09F09496A6
:10126A003FEC0CF00650D8A43DEF09F03FEF09F02F
:10127A0043EF09F0000E056E47EF09F0030E056E05
:10128A0047EF09F094983FEC0CF094863FEC0CF091
:10129A0094883FEC0CF0055053EF09F0120003500C
:1012AA000410D8B45BEF09F05DEF09F068EF09F0BC
:1012BA0003500410D8A464EF09F066EF09F06DEF4B
:1012CA0009F068EF09F0015085EC0CF0C2EF09F063
:1012DA0020EE04F00350D9260450DA22DE50DE1044
:1012EA00D8B47AEF09F07CEF09F099EF09F020EE13
:1012FA0004F00350D9260450DA2210EE02F003500B
:10130A00E1260450E222DE50E65CE650800A096ECD
:10131A00DE50800A0958D8B095EF09F097EF09F026
:10132A00C2EF09F099EF09F020EE02F00350D92636
:10133A000450DA22DECF05F0DDCF06F003C0D9FF74
:10134A0004C0DAFFDECF07F0DDCF08F0055007242E
:10135A00D96E06500820DA6E01C0DFFF20EE02F0D7
:10136A000350D9260450DA22DE2A000EDD22C2EF0B
:10137A0009F0C2EF09F0C2EF09F012007AA0C8EF33
:10138A0009F0CAEF09F0D6EF09F013C00AF014C049
:10139A000BF011C00CF012C00DF05DEC0BF0D6EFA3
:1013AA0009F016BEDBEF09F0DDEF09F0E3EF09F013
:1013BA0015C01AF016C01BF0E7EF09F0000E1B6EFD
:1013CA00000E1A6E000E196E000E186EFBEF09F071
:1013DA00000E026E200E016E11C003F012C004F05E
:1013EA0054EC09F0184A192AFBEF09F01A50185C54
:1013FA001950800A176E1B50800A1758D8A008EF98
:10140A000AF00AEF0AF0EDEF09F07AB00FEF0AF0EE
:10141A0011EF0AF01DEF0AF013C00AF014C00BF026
:10142A0011C00CF012C00DF05DEC0BF01DEF0AF0CC
:10143A0013C001F014C002F034EC0BF01A5001246E
:10144A00116E1B500220126E2BEF0AF012009F0E33
:10145A00096EFF0E0A6E07C00BF008C00CF00950A7
:10146A000B260A500C220C500AE11A0E0B5CD8A06B
:10147A0041EF0AF044EF0AF0010E45EF0AF0000EC0
:10148A000D6E0E6A55EF0AF007C001F008C002F0AF
:10149A00C8EC0BF001C00DF002C00EF055EF0AF0D7
:1014AA000D500E10D8B45CEF0AF05EEF0AF066EF4A
:1014BA000AF05F0E0714076E086A6AEF0AF06AEF0D
:1014CA000AF007C007F008C008F012006DEF0AF032
:1014DA00ACA272EF0AF074EF0AF06DEF0AF076EF41
:1014EA000AF002C0F6FF03C0F7FFF86A050EF764B8
:1014FA0003D00800F55005D0F6CFE1FFF7CFE2FFA1
:10150A00E7507FEC0CF00250046E0350056E024A5D
:10151A00032A04C0F6FF05C0F7FFF86A050EF76450
:10152A0003D00800F55005D0F6CFE1FFF7CFE2FF70
:10153A00E7500009D8A4A4EF0AF0A6EF0AF06BEF6F
:10154A000AF0A8EF0AF012005CC060F05DC061F01A
:10155A00000E756E000E746EC7EF0AF05AC043F0A3
:10156A005BC044F0600E456E000E466E5EC047F0EA
:10157A005FC048F05DEC03F0435074264450752276
:10158A00C7EF0AF060C0F6FF61C0F7FF0800F55028
:10159A000009D8A4D3EF0AF0D5EF0AF0B3EF0AF0A6
:1015AA0074C05AF075C05BF01200660E6C6E000EC5
:1015BA006D6E62C06EF063C06FF0000E716E000E49
:1015CA00706E000E736E000E726E6E0E5A6E000E04
:1015DA005B6E64C05CF065C05DF06C0E5E6E000E02
:1015EA005F6EA9EC0AF05AC06AF05BC06BF07050EB
:1015FA006224D96E71506320DA6E000EDF6E06EF38
:10160A000BF01200010E076E200E01180210D8B45A
:10161A0011EF0BF013EF0BF02EEF0BF0F70E036E3A
:10162A00FF0E046E01C005F002C006F00350052645
:10163A0004500622065009E1050E055CD8A028EFE1
:10164A000BF02AEF0BF02EEF0BF0000E076E2EEFC9
:10165A000BF007C001F0026A33EF0BF0120001C071
:10166A0005F002C006F03EEF0BF0014A022A3EEFF7
:10167A000BF001C0D9FF02C0DAFFDF50D8A448EF4F
:10168A000BF04AEF0BF03AEF0BF04CEF0BF005C002
:10169A0003F006C004F0031E041E034A042A015084
:1016AA000324016E02500420026E5CEF0BF012005C
:1016BA00000E106E000E0F6E70EF0BF00EC001F0F0
:1016CA00026A0CC003F00DC004F054EC09F00F4A92
:1016DA00102A70EF0BF00F500A24D96E10500B200D
:1016EA00DA6EDF500E6E0E50D8A47EEF0BF080EF4C
:1016FA000BF063EF0BF082EF0BF01200700ED36E5B
:10170A000F0EC16E070EB46E000E806E000E816E53
:10171A00000E826E000E926E000E936E000E946E94
:10172A00260EAC6E900EAB6E0A0EB86E100EAF6E31
:10173A00000EB06E1A0E016EF80EE82EFED7012EBC
:10174A00FCD700D012009F0E036EFF0E046E200E0F
:10175A000110056E000E0210066E03500526045095
:10176A00062206500AE11A0E055CD8A0BFEF0BF05C
:10177A00C2EF0BF0010EC3EF0BF0000E016E026A0E
:10178A00C7EF0BF012009F0E036EFF0E046E01C02E
:10179A0005F002C006F00350052604500622065042
:1017AA000AE11A0E055CD8A0DDEF0BF0E0EF0BF0B2
:1017BA00010EE1EF0BF0000E016E026AE5EF0BF08D
:1017CA001200BF0E036EFF0E046E01C005F002C0C8
:1017DA0006F0035005260450062206500AE11A0EA6
:1017EA00055CD8A0FBEF0BF0FEEF0BF0010EFFEF4C
:1017FA000BF0000E016E026A03EF0CF01200D00E1D
:10180A00036EFF0E046E01C005F002C006F003501D
:10181A0005260450062206500AE10A0E055CD8A0E5
:10182A0019EF0CF01CEF0CF0010E1DEF0CF0000E7E
:10183A00016E026A21EF0CF01200000E056E000E16
:10184A00046E31EF0CF0030E036E980EE82EFED7ED
:10185A00032EFCD7044A052A0150045C025005589D
:10186A00D8A03AEF0CF03CEF0CF028EF0CF03EEF6A
:10187A000CF01200020E016E0150D8A447EF0CF0D2
:10188A0049EF0CF04DEF0CF058EF0CF058EF0CF05C
:10189A0001060150D8A454EF0CF056EF0CF04DEFAE
:1018AA000CF058EF0CF0120001500302F3CF05F0D0
:1018BA00F4CF06F001500402F35006260250030248
:1018CA00F350062605C001F006C002F06DEF0CF0D9
:1018DA00120000EEACF0200EEE6AE806FDE100EE22
:1018EA0074F0080EEE6AE806FDE1000EF86E0001DB
:1018FA000EEF08F0016E01C0ADFF120000F01200F9
:02190A001200C9
:020000040020DA
:08000000FFFFFFFFFFFFFFFF00
:020000040030CA
:0E000000FF081E1EFF8180FF0FC00FE00F40A3
:00000001FF
